:020000040000FA
:100000000C9462000C948A000C948A000C948A0070
:100010000C948A000C948A000C948A000C948A0038
:100020000C948A000C948A000C948A000C948A0028
:100030000C948A000C948A000C948A000C948A0018
:100040000C9452070C948A000C94C2070C949C07E1
:100050000C948A000C948A000C948A000C948A00F8
:100060000C948A000C948A000000000023002600F3
:10007000290000000000240027002A0000000000E2
:10008000250028002B0004040404040404040202D4
:100090000202020203030303030301020408102007
:1000A0004080010204081020010204081020000012
:1000B0000008000201000003040700000000000027
:1000C0000000F40711241FBECFEFD8E0DEBFCDBF84
:1000D00021E0A2E4B1E001C01D92AD3FB207E1F71B
:1000E00011E0A0E0B1E0EEE3FAE102C005900D926C
:1000F000A234B107D9F710E0C2E6D0E004C02197DE
:10010000FE010E94140BC136D107C9F70E942B08CB
:100110000C941D0D0C9400008CBD9DBD0895833082
:1001200081F028F4813099F08230A9F00895873069
:10013000A9F08830C9F08430B1F4809180008F7DBF
:1001400003C0809180008F7780938000089584B5EC
:100150008F7784BD089584B58F7DFBCF8091B000EB
:100160008F778093B00008958091B0008F7DF9CF94
:100170001F93CF93DF93282F30E0F901E255FF4F13
:100180008491F901E656FF4FD491F901EA57FF4FE8
:10019000C491CC23A9F0162F81110E948F00EC2F5F
:1001A000F0E0EE0FFF1FE458FF4FA591B4918FB719
:1001B000F894EC91111108C0D095DE23DC938FBF29
:1001C000DF91CF911F910895DE2BF8CFCF93DF936E
:1001D00090E0FC01E656FF4F24918A579F4FFC01A7
:1001E00084918823D1F090E0880F991FFC01EE588C
:1001F000FF4FA591B491FC01E458FF4FC591D491F4
:1002000061110EC09FB7F8948C91E22FE0958E2378
:100210008C932881E223E8839FBFDF91CF910895DB
:100220008FB7F894EC91E22BEC938FBFF6CF3FB7EA
:10023000F8948091480190914901A0914A01B091B0
:100240004B0126B5A89B05C02F3F19F00196A11DB3
:10025000B11D3FBFBA2FA92F982F8827BC01CD0110
:10026000620F711D811D911D42E0660F771F881F6F
:10027000991F4A95D1F708958F929F92AF92BF929E
:10028000CF92DF92EF92FF920E9417014B015C0127
:1002900082E3C82ED12CE12CF12C0E9417016819A1
:1002A00079098A099B09683E734081059105A8F385
:1002B00021E0C21AD108E108F10888EE880E83E037
:1002C000981EA11CB11CC114D104E104F10429F74A
:1002D000FF90EF90DF90CF90BF90AF909F908F9066
:1002E00008952FB7F8946091440170914501809171
:1002F0004601909147012FBF0895AF92BF92CF92D0
:10030000DF92EF92FF920F931F93CF93DF936C01D5
:100310007B018B01040F151FEB015E01AE18BF08B6
:10032000C017D10759F06991D601ED91FC91019068
:10033000F081E02DC6010995892B79F7C501DF9180
:10034000CF911F910F91FF90EF90DF90CF90BF90D2
:10035000AF900895FC01538D448D252F30E0842FFC
:1003600090E0821B930B541710F0CF9608950197DD
:100370000895FC01918D828D981761F0A28DAE0FCA
:10038000BF2FB11D5D968C91928D9F5F9F73928F51
:1003900090E008958FEF9FEF08950F931F930E94B1
:1003A00071016093540170935501809356019093AD
:1003B00057018CE491E00E94B90197FF1DC00E9493
:1003C0007101009154011091550120915601309115
:1003D0005701601B710B820B930B00915001109120
:1003E000510120915201309153016017710782072A
:1003F0009307F8F28FEF9FEF1F910F910895FC0183
:10040000918D828D981731F0828DE80FF11D858DC9
:1004100090E008958FEF9FEF0895FC01918D228D5C
:10042000892F90E0805C9F4F821B91098F739927E1
:1004300008958CE491E00E940D0221E0892B09F4DB
:1004400020E0822F089580E090E0892B29F00E941F
:10045000190281110C9400000895FC01A48DA80FCD
:10046000B92FB11DA35ABF4F2C91848D90E00196F6
:100470008F739927848FA689B7892C93A089B18916
:100480008C91837080648C93938D848D981306C0B7
:100490000288F389E02D80818F7D80830895EF921B
:1004A000FF920F931F93CF93DF93EC0181E0888F2E
:1004B0009B8D8C8D98131AC0E889F989808185FFFE
:1004C00015C09FB7F894EE89FF896083E889F989A0
:1004D00080818370806480839FBF81E090E0DF91A2
:1004E000CF911F910F91FF90EF900895F62E0B8DF5
:1004F00010E00F5F1F4F0F731127E02E8C8D8E11B0
:100500000CC00FB607FCFACFE889F989808185FF16
:10051000F5CFCE010E942D02F1CFEB8DEC0FFD2F18
:10052000F11DE35AFF4FF0829FB7F8940B8FEA89D1
:10053000FB8980818062CFCFCF93DF93EC01888DE0
:100540008823B9F0AA89BB89E889F9898C9185FD4E
:1005500003C0808186FD0DC00FB607FCF7CF8C91DC
:1005600085FFF2CF808185FFEDCFCE010E942D0265
:10057000E9CFDF91CF910895BC016E5F7F4FDC0121
:10058000ED91FC910190F081E02D40E0099591E022
:10059000811190E0892F089508958EBD00000DB45B
:1005A00007FEFDCF8EB50895DF92EF92FF920F9375
:1005B0001F93CF93DF937C01062FD42E152F80E558
:1005C00090E00E948C0060E0F70186850E94B800F0
:1005D00082E10E94CD02CD2DD12F0C0F1D2F111DB8
:1005E000C017D10721F089910E94CD02F9CF61E0B7
:1005F000F7018685DF91CF911F910F91FF90EF90CA
:10060000DF900C94B8001F93CF93DF93EC01162F6B
:1006100080E590E00E948C0060E08E850E94B8002A
:10062000812F80680E94CD0280E00E94CD02182FA9
:1006300061E08E850E94B800812FDF91CF911F91DC
:1006400008950F931F93CF93DF93EC01062F142F80
:1006500080E590E00E948C0060E08E850E94B800EA
:10066000802F0E94CD02812F0E94CD0261E08E85F5
:10067000DF91CF911F910F910C94B800CF92DF9230
:10068000EF92FF920F931F93CF93DF93EC016B01D7
:10069000F42E890140E062E00E94210344E06AE018
:1006A000CE010E94210340E864E1CE010E942103B3
:1006B000A6016F2DCE010E94D40243E062E0CE017C
:1006C0000E9421030E9471016B017C0129E5C20E89
:1006D000D11CE11CF11C6AE0CE010E94030382FFE1
:1006E0001BC040E062E0CE010E94210364E4CE0121
:1006F0000E940303F801808362E4CE010E94030399
:10070000F801818380E0DF91CF911F910F91FF90DD
:10071000EF90DF90CF9008950E9471016C157D05D8
:100720008E059F05C0F283E0EECF2F923F924F924D
:100730005F926F927F928F929F92AF92CF92DF9251
:10074000EF92FF920F931F93CF93DF9300D0CDB71B
:10075000DEB74C012B01D42E390180E0E114F10405
:1007600011F0F70180813C2C329490EF3922380E41
:1007700040E062E0C4010E9421034FE768E0C40149
:100780000E94210340E864E1C4010E942103A20108
:100790006D2DC4010E94D402432D6AE1C4010E9460
:1007A00021034CE062E0C4010E9421036AE1C4011C
:1007B0000E940303482F40686AE1C4010E9421039C
:1007C0000E9471011B012C01F4E22F0E311C411C0F
:1007D000511C68E0C4010E940303982F907309F034
:1007E000B7C080FF15C083E00F900F90DF91CF91CD
:1007F0001F910F91FF90EF90DF90CF90AF909F905F
:100800008F907F906F905F904F903F902F900895C2
:100810000E9471016215730584059505D0F2E3CF3E
:100820006114710409F469C00115110509F465C06A
:1008300064E1C4010E940303382EF801808183150E
:1008400008F480C030823320E1F180E590E00E941E
:100850008C0060E0F40186850E94B8003A9482E939
:100860000E94CD02CC20B1F08FEF90E09C0102C03D
:10087000220F331FCA94E2F7690182E90E94CD0278
:100880009C2D9095F301208192238C21982B9083AD
:10089000CC24C39423014C0C511CC31440F482E9B2
:1008A0000E94CD02F20181932F01C394F6CF80E024
:1008B0000E94CD02F201808361E0F40186850E94EE
:1008C000B80068E1C4010E9403038770E114F104D9
:1008D00011F0F701808323FC37C061147104B1F17A
:1008E0000115110599F1AA2089F1F80140814130E3
:1008F00031F4843029F58FEF77CF80E0ECCF4230B0
:10090000F8F081111DC042509E012F5F3F4FB3018F
:10091000C4010E943E03811167CFF8019081690EE6
:10092000711CF301329720819981291309C0F1E0EC
:100930006F1A7108F30120819A81291709F454CFA5
:1009400087E052CF84E050CF82E04ECF80E04CCFA2
:100950006CE0C4010E940303282E837109F460CF68
:1009600081E042CF8F929F92AF92CF92EF92FF920F
:100970000F931F93CF93DF9300D000D01F92CDB77A
:10098000DEB74C0182E08D8340E064E2C4010E9446
:10099000210340E066E2C4010E94210346E268E4CC
:1009A000C4010E94210386E28B838D818230D8F1BD
:1009B0006CE1C4010E940303482F4F776CE1C4012E
:1009C0000E94210387E08C83A12CC12CCE010496C8
:1009D0007C018E010B5F1F4F9E012F5F3F4F41E057
:1009E000BE016D5F7F4FC4010E949503982F811156
:1009F00017C08D818230B9F48C81811114C081E0DF
:100A00000F900F900F900F900F90DF91CF911F914B
:100A10000F91FF90EF90CF90AF909F908F9008959F
:100A200081E0923069F380E0EBCF2F923F924F92BA
:100A30005F926F927F928F929F92AF92BF92CF926E
:100A4000DF92EF92FF920F931F93CF93DF93CDB777
:100A5000DEB72D970FB6F894DEBF0FBECDBF16E000
:100A6000413508F04AC1342E3B014C016CE10E9433
:100A70000303482F4F776CE1C4010E94210383E9EF
:100A80008983332029F081E0F3019081953008F4C7
:100A900080E022242394B12C9B2D990F990F990F5C
:100AA000D32CD91AD7FCD12C32E0882319F098E83E
:100AB0009B8333E021E09D2D977009F420E09D2D6C
:100AC000959595959595290FC9F094E0811193E03E
:100AD000291708F4922FEB2DF0E03196E60DF71D63
:100AE000232F4191A1E0B0E0AC0FBD1FA20FB11DBB
:100AF0004C932F5F422F431B491798F3882311F023
:100B0000F8E0DF0E8FE18D150CF082C090E79A833C
:100B10008B819C8189279D8189279E8189278F834D
:100B20009E01285F3F4F47E0BE016F5F7F4FC401CA
:100B30000E943E03182F8111E0C01A86E3E0EB8784
:100B4000DC86CE0107962C0199E09D87CA844C2D46
:100B50004295407F4C0D6AE1C4010E942103A12C03
:100B6000CE010A967C018E01055F1F4F92014D85D3
:100B7000BE016F5F7F4FC4010E949503182F823022
:100B800009F065C06CE1C4010E94030385FDB5C096
:100B90008F7109F480E2282F30E04D2DDD0C550BCC
:100BA000421753070CF09DC0D82EE82FE595E59528
:100BB000E595EF5F982F977081E009F480E0E80FEA
:100BC00081E090E08C0F9D1F8E0F911DFC01215044
:100BD00031092770332781E090E002C0880F991F08
:100BE0002A95E2F79C018081822B80838BCF85E957
:100BF0008983332031F081E0F3019081983008F04F
:100C00004BCF80E049CF87E9898326E0B22EF9CF28
:100C10009D2D97709A878D2D8595859585958E5FED
:100C2000282F2295207F290F2A8321E0911101C0CE
:100C300020E0280F2D8744244394512C4C0E5D1E38
:100C4000480E511CE9E0E81BEB87DC867FCF811161
:100C500054C080E2D82E9C8590320CF457CF8B8103
:100C6000883809F040C083E093E0EB2DF0E0319646
:100C7000E60DF71D980FA1E0B0E0AC0FBD1FA80F67
:100C8000B11D2C9121938F5F8913F5CFBB84E3E0D5
:100C9000BE124DC08A8581114AC09E012D5F3F4F13
:100CA00041E0B201C4010E943E03182F811125C00A
:100CB0009B81F201818198133CC09C8182819813B1
:100CC00038C0808182FF12C02394F2E02F1609F40D
:100CD0008ECF83E0281609F496CF91E0291609F407
:100CE000CECE15E00AC082E094E0BFCFF301838747
:100CF000822D880F820D8F5F8083812F2D960FB6F6
:100D0000F894DEBF0FBECDBFDF91CF911F910F9141
:100D1000FF90EF90DF90CF90BF90AF909F908F901B
:100D20007F906F905F904F903F902F90089511E0CB
:100D3000E4CF17E0E2CF42E050E062E271E08CE401
:100D400091E00C947D01CF93DF93FC010190002092
:100D5000E9F73197AF01481B590BBC018CE491E0D6
:100D60000E947D01EC010E949B068C0F9D1FDF916C
:100D7000CF910895FC0180819181009711F00C942E
:100D8000B60B08950F931F93CF93DF93EC018881E7
:100D90009981009759F02A813B812617370730F057
:100DA00081E0DF91CF911F910F9108958B016F5FCB
:100DB0007F4F0E943F0C009759F0998388831B83D3
:100DC0000A832C813D81232B59F7FC011082E8CF47
:100DD00080E0E7CFEF92FF920F931F93CF93DF93C3
:100DE0006115710541F480E0DF91CF911F910F9162
:100DF000FF90EF90089541155105B1F07B01EC0192
:100E00000C811D81040F151FB8010E94C2068823A2
:100E100051F3288139818C819D81B701820F931F05
:100E20000E94160D1D830C8381E0DECFEF92FF92AE
:100E30000F931F93CF93DF93EC017B018A01BA01DB
:100E40000E94C20628813981811114C02115310503
:100E500019F0C9010E94B60B198218821D821C82EA
:100E60001B821A82CE01DF91CF911F910F91FF90CB
:100E7000EF9008951D830C83B701C9010E94160DE0
:100E8000F1CFFC011182108213821282158214822A
:100E9000FB0101900020E9F73197AF01461B570B8A
:100EA0000C9416071F920F920FB60F9211242F93D6
:100EB0003F938F939F93AF93BF9380914401909101
:100EC0004501A0914601B09147013091430123E0D3
:100ED000230F2D3758F50196A11DB11D2093430115
:100EE0008093440190934501A0934601B09347013C
:100EF0008091480190914901A0914A01B0914B0124
:100F00000196A11DB11D8093480190934901A093C2
:100F10004A01B0934B01BF91AF919F918F913F9147
:100F20002F910F900FBE0F901F90189526E8230F5A
:100F30000296A11DB11DD2CF1F920F920FB60F9234
:100F400011242F933F934F935F936F937F938F93CE
:100F50009F93AF93BF93EF93FF938CE491E00E9434
:100F60002D02FF91EF91BF91AF919F918F917F9152
:100F70006F915F914F913F912F910F900FBE0F9006
:100F80001F9018951F920F920FB60F9211242F9356
:100F90008F939F93EF93FF93E0915C01F0915D013C
:100FA0008081E0916201F091630182FD1BC090811C
:100FB000809165018F5F8F7320916601821741F0E8
:100FC000E0916501F0E0E45BFE4F958F8093650151
:100FD000FF91EF919F918F912F910F900FBE0F90E6
:100FE0001F9018958081F4CFECE4F1E01382128217
:100FF00088EE93E0A0E0B0E084839583A683B78376
:101000008AE091E09183808385EC90E095878487E6
:1010100084EC90E09787868780EC90E0918B808BC2
:1010200081EC90E0938B828B82EC90E0958B848BAB
:1010300086EC90E0978B868B118E128E138E148E19
:10104000E9EEF1E08CE191E0918380838AE086878C
:1010500089E087870895CF93DF93CDB7DEB76B978D
:101060000FB6F894DEBF0FBECDBF789484B5826012
:1010700084BD84B5816084BD85B5826085BD85B53C
:10108000816085BD80916E00816080936E001092BA
:101090008100809181008260809381008091810035
:1010A00081608093810080918000816080938000C6
:1010B0008091B10084608093B1008091B000816024
:1010C0008093B00080917A00846080937A00809150
:1010D0007A00826080937A0080917A0081608093A8
:1010E0007A0080917A00806880937A001092C10023
:1010F000E0915C01F0915D0182E08083E091580114
:10110000F09159011082E0915A01F0915B018FEC4E
:10111000808310926401E0916001F091610186E0AA
:101120008083E0915E01F0915F0180818061808326
:10113000E0915E01F0915F01808188608083E091A1
:101140005E01F0915F01808180688083E0915E01A3
:10115000F0915F0180818F7D80831FB7F89480912B
:101160004201811127C0E0E9F0E08491E4EAF0E077
:101170009491E82FF0E0EE0FFF1FEE58FF4FA5917E
:10118000B491EC91E92321F461E08AE00E94B80077
:1011900061E08AE00E94E6008CB580618CBD8CB570
:1011A00080648CBD61E08DE00E94E60061E08BE030
:1011B0000E94E600809142018F5F809342011FBF31
:1011C00061E08091F7010E94E60061E08091F70103
:1011D0000E94B8008091F8018F3F09F4B5C060E02B
:1011E0000E94E6002091F80130E0F901E255FF4F3E
:1011F0008491F901E656FF4F0491F901EA57FF4F38
:101200001491111192C061E08091F8010E94E600F2
:1012100060E08091F8010E94B80083E090E00197BF
:10122000F1F761E08091F8010E94B8000E943C0152
:1012300040E064E289EE91E00E94210340E066E232
:1012400089EE91E00E94210346E268E489EE91E094
:101250000E94210340E864E589EE91E00E942103A9
:1012600049EA66E589EE91E00E94210343E068E5E2
:1012700089EE91E00E94210348EE6AE589EE91E053
:101280000E94210340E46AE289EE91E00E9421037A
:101290004DE362E289EE91E00E94210368E289EE6B
:1012A00091E00E940303982F9370933039F0482FF8
:1012B000436068E289EE91E00E9421038E010F5F96
:1012C0001F4F20E0C22E20E0D22E8CE491E00E943D
:1012D0000D02181619060CF076C064E271E0CE011A
:1012E00046960E9441070E94CD01EA8CFB8C97FD37
:1012F0003EC08A30910509F43AC089831A822FEFE3
:10130000E21AF20AB701CE0146960E94C20688236D
:1013100051F32E893F898A8D9B8DB801820F931FCF
:101320000E94160DFB8EEA8EDECF81110E948F0087
:10133000E12FF0E0EE0FFF1FE859FF4FA591B491A8
:10134000EC910E2309F45FCF4FE062E089EE91E06B
:101350000E94210313E00E943C0162E089EE91E0CB
:101360000E94030384FF64CF1150A9F761CFEF28D7
:1013700031F1EE88FF886AE271E0C7010E940D0D2D
:10138000892B09F0E3C089EE91E00E94B20481113B
:1013900026C064E271E0C8010E9441074D815E8170
:1013A0004115510509F4CDC069817A818CE491E041
:1013B0000E947D010E949B06C8010E94BA06CE01D0
:1013C00046960E94BA06C114D10409F47ECF0E9449
:1013D0001902882309F475CF0E94000072CF89EEAC
:1013E00091E00E94BC028823A1F264E271E0CE0188
:1013F00040960E944107F12C8091EB01F81608F00D
:1014000043C08F2D90E0FC01E751FE4F4F018381D7
:1014100065E271E0803110F068E271E0C8010E947D
:1014200041074D815E8169817A81CE0140960E949B
:10143000EA06C8010E94BA06F40183811B861A8657
:101440001D861C861F861E8640E1B80190E00E9422
:10145000B30AF80101900020E9F73197AF01401B72
:10146000510BB801CE010A960E9416074E855F8582
:101470006A857B85CE0140960E94EA06CE010A96D7
:101480000E94BA06F394B8CFE888F988E114F10411
:1014900071F0F70181917F01882349F0082E000C3B
:1014A000990B0E94FC0CF70131978083F2CF8C8856
:1014B0009D88AA24A394B12C8114910421F0540195
:1014C00088248394912C64E271E0C8010E94410752
:1014D000EC88FD888E149F0410F5AE14BF0408F448
:1014E0007501E889F989EE0DFF1DB08010826889C9
:1014F0007989680D791D61157105B1F0FB010190C5
:101500000020E9F73197AF01461B570BC8010E9435
:10151000160788899989E80EF91EF701B082CE0175
:1015200040960E94BA063ACF89819A81009711F0BD
:101530000E94B60B1A8219821E821D821C821B8297
:10154000E8CF8FE291E00E94A30636CF67E371E017
:10155000C7010E940D0D892B09F031CF8CE391E07A
:101560000E94A3062CCFBB27FB015527AA27880F73
:10157000991FAA1FA41710F0A41B83955051B9F707
:10158000A05DAA3308F0A95DA193009779F7B11186
:10159000B1931192CB010C94CD0ADC01FC01672FB1
:1015A00071917723E1F7329704C07C916D9370833A
:1015B0006291AE17BF07C8F308952F923F924F92E2
:1015C0005F926F927F928F929F92AF92BF92CF92D3
:1015D000DF92EF92FF920F931F93CF93DF93CDB7DC
:1015E000DEB7CA1BDB0B0FB6F894DEBF0FBECDBF54
:1015F00009942A88398848885F846E847D848C8425
:101600009B84AA84B984C884DF80EE80FD800C812D
:101610001B81AA81B981CE0FD11D0FB6F894DEBF10
:101620000FBECDBFED010895EE0FFF1F0590F491A1
:10163000E02D09940F931F93CF93DF938230910590
:1016400010F482E090E0E091FB01F091FC0130E0C9
:1016500020E0B0E0A0E0309799F42115310509F4BD
:101660004AC0281B390B24303105D8F58A819B816B
:101670006115710589F1FB0193838283FE0111C01D
:10168000408151810281138148175907E0F04817C2
:10169000590799F4109761F012960C9312971396CC
:1016A0001C933296CF01DF91CF911F910F91089536
:1016B0000093FB011093FC01F4CF2115310551F08B
:1016C0004217530738F0A901DB019A01BD01DF0180
:1016D000F801C1CFEF01F9CF9093FC018093FB019A
:1016E000CDCFFE01E20FF31F819391932250310978
:1016F00039832883D7CF2091F9013091FA01232B28
:1017000041F420910201309103013093FA012093BA
:10171000F90120910001309101012115310541F4B9
:101720002DB73EB74091040150910501241B350BA4
:10173000E091F901F091FA01E217F307A0F42E1BF2
:101740003F0B2817390778F0AC014E5F5F4F241725
:10175000350748F04E0F5F1F5093FA014093F9018F
:10176000819391939FCFF0E0E0E09CCFCF93DF9304
:101770000097E9F0FC01329713821282A091FB01DD
:10178000B091FC01ED0130E020E01097A1F4208140
:101790003181820F931F2091F9013091FA012817AE
:1017A000390709F061C0F093FA01E093F901DF9184
:1017B000CF910895EA01CE17DF07E8F54A815B81F2
:1017C0009E0141155105B1F7E901FB83EA83499177
:1017D0005991C40FD51FEC17FD0761F480819181E9
:1017E0000296840F951FE9019983888382819381F2
:1017F0009B838A83F0E0E0E012968D919C91139791
:101800000097B9F52D913C911197CD010296820F69
:10181000931F2091F9013091FA012817390739F601
:10182000309751F51092FC011092FB01B093FA0130
:10183000A093F901BCCFD383C28340815181840F2F
:10184000951FC817D90761F44E5F5F4F8881998152
:10185000480F591F518340838A819B8193838283E0
:101860002115310509F0B0CFF093FC01E093FB01A5
:101870009ECFFD01DC01C0CF13821282D7CFB0E032
:10188000A0E0E5E4FCE00C94DF0A8C01009751F441
:10189000CB010E941A0B8C01C801CDB7DEB7E0E185
:1018A0000C94FB0AFC01E60FF71F9C012250310942
:1018B000E217F30708F49DC0D901CD91DC9111978F
:1018C000C617D70798F0C530D10530F3CE0104977D
:1018D0008617970708F3C61BD70B2297C193D1939E
:1018E0006D937C93CF010E94B60BD6CF5B01AC1AEF
:1018F000BD0A4C018C0E9D1EA091FB01B091FC0114
:10190000512C412CF12CE12C109731F58091F901EB
:101910009091FA018815990509F05CC046165706A2
:1019200008F058C08091000190910101009741F4A6
:101930008DB79EB74091040150910501841B950B12
:10194000E817F90708F055C0F093FA01E093F901A0
:10195000F90171836083A0CF8D919C9111971296AC
:101960006C90129713967C901397A815B90559F5AA
:101970006C0142E0C40ED11CCA14DB0420F1AC019E
:101980004A195B09DA011296159780F06282738218
:1019900051834083D9016D937C93E114F10471F07C
:1019A000D7011396FC93EE93129776CF22968C0F65
:1019B0009D1FF90191838083F301EFCFF093FC0128
:1019C000E093FB0169CF4816590608F42C017D010C
:1019D000D3019ACFCB010E941A0B7C01009749F0EA
:1019E000AE01B8010E94040DC8010E94B60B870128
:1019F00053CF10E000E050CF9111089581568A51E5
:101A000008F4805285580895FB01DC0102C0019062
:101A10000D9241505040D8F70895FB01DC018D91A3
:101A2000019080190110D9F3990B0895FB01DC0195
:101A300001900D920020E1F70895F894FFCF000087
:101A4000FD018000000000004F027D01AA019C0200
:101A50000D02B901FF01000000001505B204BC022F
:101A60000D0A00203000200072656164006E6F2056
:101A7000636172640070696E6700706F6E6700006A
:107E0000112484B714BE81FFF0D085E080938100F7
:107E100082E08093C00088E18093C10086E0809377
:107E2000C20080E18093C4008EE0C9D0259A86E02C
:107E300020E33CEF91E0309385002093840096BBD3
:107E4000B09BFECF1D9AA8958150A9F7CC24DD24C4
:107E500088248394B5E0AB2EA1E19A2EF3E0BF2EE7
:107E6000A2D0813461F49FD0082FAFD0023811F036
:107E7000013811F484E001C083E08DD089C08234E0
:107E800011F484E103C0853419F485E0A6D080C0E4
:107E9000853579F488D0E82EFF2485D0082F10E0AE
:107EA000102F00270E291F29000F111F8ED06801E7
:107EB0006FC0863521F484E090D080E0DECF843638
:107EC00009F040C070D06FD0082F6DD080E0C81688
:107ED00080E7D80618F4F601B7BEE895C0E0D1E017
:107EE00062D089930C17E1F7F0E0CF16F0E7DF06D8
:107EF00018F0F601B7BEE89568D007B600FCFDCFD4
:107F0000A601A0E0B1E02C9130E011968C91119780
:107F100090E0982F8827822B932B1296FA010C0160
:107F200087BEE89511244E5F5F4FF1E0A038BF0790
:107F300051F7F601A7BEE89507B600FCFDCF97BE46
:107F4000E89526C08437B1F42ED02DD0F82E2BD052
:107F50003CD0F601EF2C8F010F5F1F4F84911BD097
:107F6000EA94F801C1F70894C11CD11CFA94CF0C13
:107F7000D11C0EC0853739F428D08EE10CD085E9AC
:107F80000AD08FE07ACF813511F488E018D01DD067
:107F900080E101D065CF982F8091C00085FFFCCF94
:107FA0009093C60008958091C00087FFFCCF809118
:107FB000C00084FD01C0A8958091C6000895E0E648
:107FC000F0E098E1908380830895EDDF803219F02E
:107FD00088E0F5DFFFCF84E1DECF1F93182FE3DFCA
:107FE0001150E9F7F2DF1F91089580E0E8DFEE27F6
:047FF000FF270994CA
:027FFE00040479
:00000001FF
